:020000040800F2
:10000000B0210020D95B0008FD5B0008015C0008FE
:10001000055C0008095C00080D5C00080000000099
:10002000000000000000000000000000115C00085B
:10003000155C000800000000195C0008B55B0008B2
:100040001D5C0008215C0008255C0008295C000894
:100050002D5C0008315C0008355C0008395C000844
:100060003D5C0008415C0008455C0008495C0008F4
:100070004D5C0008515C0008555C0008595C0008A4
:100080005D5C0008615C0008655C0008695C000854
:100090006D5C0008715C0008755C0008795C000804
:1000A0007D5C0008815C0008855C0008895C0008B4
:1000B0008D5C0008915C0008955C0008995C000864
:1000C0009D5C0008A15C0008A55C0008A95C000814
:1000D000AD5C0008B15C0008B55C0008B95C0008C4
:1000E000BD5C0008C15C0008C55C0008C95C000874
:1000F000CD5C0008D15C0008D55C0008D95C000824
:10010000DD5C0008E15C0008E55C0008E95C0008D3
:10011000ED5C0008F15C0008F55C0008F95C000883
:10012000FD5C0008015D0008055D0008095D000830
:100130000D5D0008115D0008155D0008195D0008DF
:100140001D5D0008215D0008255D0008295D00088F
:100150002D5D0008315D0008355D0008395D00083F
:100160003D5D0008415D0008455D0008495D0008EF
:100170004D5D0008515D0008555D0008000000005D
:10018000595D00085D5D0008615D0008655D00085F
:10019000695D00086D5D0008715D0008755D00080F
:1001A000795D00087D5D0008815D0008855D0008BF
:1001B000895D00088D5D0008915D0008955D00086F
:1001C000995D00089D5D0008A15D0008A55D00081F
:1001D000A95D0008AD5D0008B15D0008B55D0008CF
:1001E000B95D0008BD5D0008C15D0008C55D00087F
:1001F000C95D0008CD5D00082DE9F04F82460FF281
:100200005860A5B015461E46D0E90023CDE912235B
:1002100003AF00207960B8620DF1500900E0454459
:100220000020ADF8020012AB4FF0FF3229460DF16D
:10023000020001F0AEF88046B8F1010F08DA287824
:10024000B0F1010868EB08086FEA08004FEAD078BF
:10025000BDF8020025280CBFA8F1010BC346BBF175
:10026000010F0EDB2C4614F8011B7868D0470028DC
:10027000786000F0F880B86A401CBBF1010BB862EE
:10028000F1D1BDF80200252807D10020386178613E
:10029000B861F8613862786205E00028BFD1B86AB9
:1002A000E2E240F0010015F8011F2029F9D02329CE
:1002B0000DD02B2904D02D2906D030290AD00CE0EE
:1002C00040F0020080B2EEE740F00400FAE740F0B0
:1002D0000800F7E740F01000F4E72A290ED1316852
:1002E000316051F8042B3160002A3A6304D5514241
:1002F00040F00400396380B26D1C13E000213963C3
:100300000BE0396B6FF00043994205D001EB81039C
:1003100002EB4301303939636D1C2A78A2F13001B8
:100320000A29EED329782E2903D04FF0FF31F96244
:100330001FE015F8011F2A2907D1316831606D1CB3
:1003400051F8042B3160FA6213E00021F9620BE0EE
:10035000F96A6FF00043994205D001EB810302EB8B
:1003600043013039F9626D1C2A78A2F130010A2963
:10037000EED3B8860FF2E840297801F01BF808B1F7
:1003800015F8010B8DF842009DF84200682802BF65
:1003900029786829622005D06C2804BF28786C2849
:1003A00003D171208DF842006D1C14A8F86015F877
:1003B000014BB4F125002AD01C3800F0DB80001F6F
:1003C000022840F2D780133800F0FB80093800F093
:1003D000D180801E00F06581401E00F03C81401EEF
:1003E000022840F2C780001F00F03581401F00F056
:1003F0009280401E00F0E580401E37D0C01E0BD01A
:10040000801E00F0DE80C01E00F0DB806CE1252045
:100410008DF85000012070E19DF842006C28306892
:10042000306016D050F8048B3060C7F80880FC6A42
:10043000002C04D5404600F0C9FF044607E02246E0
:100440000021404600F0DEFF08B1A0EB08047C610B
:1004500054E150F8042B306002A9504600F03EFAF7
:10046000002840F14B814FF0FF30FDE131683160F1
:10047000002251F8040B31604FF03C0E0021CDE911
:10048000020114A8B860DDE902019142FC6808BFCE
:10049000904201D1FA6AC2B100F00F033033DBB2EF
:1004A0003A2BA8BF2733AEF101020009A3549646A8
:1004B00040EA017009090022914208BF904204D02D
:1004C000BA6804EB0E039A42E6D304EB0E01B9605E
:1004D000CEF13C00F96A7861884207DA081AF861BF
:1004E0004FF6EF71B88E0840B88607E1002940F159
:1004F000058197F8341001F01401102940F0FE80B6
:10050000396B3A69891AFA69891A081A0128C0F2FE
:10051000F580F861F2E09DF8420062281AD0682860
:1005200006D06A280CD06C281CD0712808D019E09D
:100530003068306050F8041B3060B86A0880DDE035
:100540003068306050F8042B3060B86AC117C2E9D7
:100550000001D3E03068306050F8041B3060B86AA6
:100560000870CBE03068306050F8041B3060B86A27
:100570000860C3E03068C01D20F007023260D2E995
:10058000000108323260CDE90201002902D5386944
:100590002D2109E0B88E810702D538692B2103E0AF
:1005A000C00705D53869202109F80010401C3861C2
:1005B00014A839690844B860214602A800F09AFBE3
:1005C0009CE09DF842006C280DD0712818BF6A2865
:1005D00009D13068C01D20F007023260D2E9000165
:1005E0000832326005E03168316051F8040B316047
:1005F0000021CDE902019DF84200682803D1DDE920
:10060000020180B20BE0622803D1DDE90201C0B231
:1006100005E0742818BF7A2804D1DDE90201002121
:10062000CDE9020197F83400000731D5DDE9022356
:100630000020834208BF82422AD044F0200078285C
:1006400026D13869302109F80010401C411C39615D
:1006500009F800401CE09DF84200314600F007F91F
:10066000CDE90201DDE9022300218B4202DA38697B
:100670002D2109E0B88E810702D538692B2103E0CE
:10068000C00705D53869202109F80010401C3861E1
:1006900014A839690844B860214602A800F0A4FAF9
:1006A0002CE09DF842006C2809D0012038613068A8
:1006B000306050F8041B30608DF850101EE0306838
:1006C000306001AA50F8041B3060ADF8041000201F
:1006D000ADF8060002A94FF0FF30F862504600F076
:1006E000FDF800280AD5BEE625208DF8500001202F
:1006F00038611CB189F8014002203861386B3969D2
:10070000401AF969401A7969401A396A401AB96978
:10071000401A796AA0EB010897F83400400711D419
:100720002020B8F1010F8DF800000BDB44460123B7
:100730006A4602A9504600F007FE00287FF493AEF7
:10074000641EF4D1D7F810B0BBF1000F14AC0DD07B
:1007500014F8011B7868D047002878603FF483AE16
:10076000B86A401CBBF1010BB862F1D130208DF8A2
:100770000000FC69012C0ADB01236A4602A95046ED
:1007800000F0E2FD00287FF46EAE641EF4D1D7F8CD
:1007900014B0BC68BBF1000F0DD014F8011B7868D1
:1007A000D047002878603FF45EAEB86A401CBBF1C9
:1007B000010BB862F1D130208DF800003C6A012CA9
:1007C0000ADB01236A4602A9504600F0BDFD00285D
:1007D0007FF449AE641EF4D1B8687969D7F818B0CF
:1007E0004418BBF1000F0DD014F8011B7868D047F6
:1007F000002878603FF437AEB86A401CBBF1010BAB
:10080000B862F1D130208DF800007C6A012C0ADB3F
:1008100001236A4602A9504600F096FD00287FF4A5
:1008200022AE641EF4D197F8340040077FF5F8AC8F
:100830002020B8F1010F8DF80000FFF6F1AC012384
:100840006A4602A9504600F07FFD00287FF40BAEF7
:10085000B8F10108F3D1E3E400000000000000005B
:10086000686A6C747A4C000025B0BDE8F08F62288D
:1008700026D068281DD06A2808D06C2827D0712877
:1008800004D0742823D07A280CD020E00868C01D3A
:1008900020F007000860D0E90023083008601946FE
:1008A000104670470A680A6052F8040B0A6000217B
:1008B00070470A680A6052F8040B0A6000B20BE045
:1008C0000A680A6052F8040B0A6040B204E00A6841
:1008D0000A6052F8040B0A60C11770472DE9F44F03
:1008E0000D4694B0D5F830A0BAF1000F804648BF4D
:1008F0006FF0004A00F0B2FD696B401801900FF6EE
:100900007820D0E90023CDE9022395F8380040078C
:1009100002D40198412805D240200DF11009019020
:10092000002609E000F0A0FD5FEA0009F8D14FF0D1
:10093000FF3056E1AAEB040ABAF1010FC0F2CE80F3
:100940001498018802AA0DF1010000F0E5FD0028CD
:10095000044600F1DE801498008810B9641E00F18E
:10096000D880A245C0F2BA806869019922189142E4
:1009700080F0A2806E634042296A401AA969401A39
:10098000696A401AE969401AA96A461A95F8380056
:10099000400710D42020012E8DF800000BDB3746D5
:1009A00001236A462946404600F0CEFC002840F06C
:1009B000B0807F1EF4D1D5F814B0BBF1000F4F46C4
:1009C0000DD017F8011BA868C0470028A86000F0E8
:1009D000A080E86A401CBBF1010BE862F1D1302035
:1009E0008DF800002F6A012F0ADB01236A46294691
:1009F000404600F0A9FC002840F08B807F1EF4D117
:100A0000D5F818B0EF68BBF1000F0CD017F8011B38
:100A1000A868C0470028A8607BD0E86A401CBBF1EA
:100A2000010BE862F2D130208DF800006F6A012FCF
:100A300009DB01236A462946404600F085FC002870
:100A400067D17F1EF5D1E868A969D5F81CB04718B1
:100A5000BBF1000F0CD017F8011BA868C047002895
:100A6000A86056D0E86A401CBBF1010BE862F2D1E5
:100A700030208DF80000AF6A012F09DB01236A46A0
:100A80002946404600F060FC002842D17F1EF5D187
:100A900095F8380040070DD52020012E8DF8000074
:100AA00008DB01236A462946404600F04DFC80BB26
:100AB000761EF6D100266E61224668690DF10101AD
:100AC000484400F037FD6869201868611498801C5C
:100AD0001490801E008800287FF42CAF686B696931
:100AE000401A296A401AA969401A696A401AE969D4
:100AF000401AA96AA0EB010A95F83800400710D403
:100B0000BAF1010F0DDB5446A8682021C047A86048
:100B100010B94FF0FF365DE0E86A401C641EE862E1
:100B2000F2D16B694A462946404600F00DFC002888
:100B3000EFD12C6A012C0ADBA8683021C0470028BD
:100B4000A860E6D0E86A401C641EE862F4D1AB6994
:100B5000EA682946404600F0F7FB0028D9D16C6AC4
:100B6000012C0ADBA8683021C0470028A860D0D03B
:100B7000E86A401C641EE862F4D1E868A969EB6980
:100B800042182946404600F0DFFB0028C1D1AC6A7C
:100B9000012C0ADBA8683021C0470028A860B8D023
:100BA000E86A401C641EE862F4D195F838004007FA
:100BB0000ED5BAF1010F0BDBA8682021C047002831
:100BC000A860A6D0E86A401CBAF1010AE862F3D135
:100BD0006E616E6304A881451CBF484600F0E6FCC8
:100BE000304615B0BDE8F08F2DE9F34305460846C1
:100BF0002F696F2808BF082405D041F0200178290B
:100C000014BF0A2410243C26D5E90023642818BF09
:100C100069289046994606D100218B4203DAD8F123
:100C2000000869EB49090020814508BF80450CD1C7
:100C3000286B50B9082C38D195F83800000734D506
:100C400030203B2687F83B002FE0701E00900646C0
:100C5000404649462246E31700F0E8FC02F1300026
:100C6000C0B23A2803DB9DF8041051390818B85572
:100C7000494640462246E31700F0D8FC80468946A4
:100C80000020814508BF804503D0E868B919884233
:100C9000DBD3082C09D195F83800000705D5B85DDD
:100CA000302802D0761E3020B855B919E960C6F157
:100CB0003C00296BA861884208DA081A28624FF6BE
:100CC000EF71288F08402887BDE8F38300290ED5EF
:100CD00095F8381001F01401102908D1696B6A6980
:100CE000891A2A6A891A0E1A012EA8BF2E62BDE837
:100CF000F38300002DE9F24F04468EB0D4E90001E1
:100D0000CDE9020104AF9DF8380040F0200BBBF1A3
:100D1000610F0AD0206B002848BF062004D408BF0A
:100D2000BBF1670F01D1012020636168C1F30A5054
:100D300040F2FF7290421CD1080304BF20680028D3
:100D400009D10320A0619DF8380061381A2835D3F5
:100D50000FF2386108E00320A0619DF83800613887
:100D60001A2828D30FF21C61E068032200F0E2FB8E
:100D7000BDE1012815DA204600F0CFFC012810DB88
:100D800000250020BBF1610F1FD1E16830220A70FD
:100D90008A1CE2609DF83820612A0CBF7822582214
:100DA0000FE0626840F2FE3161F31E52451A626044
:100DB0004FF0FF30E6E70FF2C851D5E70FF2C85108
:100DC000D2E74A706169891C616110B9002600256B
:100DD00084E1BBF1610F40F09880206BD4E900AB57
:100DE00000284CBF2126461CDDE902010022002319
:100DF00000F0B6FC36B23ABF8BF00040CDE902A05D
:100E0000CDE902AB06F101082D1FB8F1010F8DF8F5
:100E100010200DF1110736DBDDE90201002200236D
:100E200000F0B6FC2FD21C2102A800F0C9FCDDE9BD
:100E3000020100F04FFDA8F10708B8F1010F81464B
:100E400009DB00F04EFD02460B46DDE9020100F031
:100E50004FFDCDE90201F81D072105E009F00F0261
:100E600000F8012D4FEA2919B9F1010F01DB491EE4
:100E7000F4D5491E5CBF002200F8012DF9D5C71D2D
:100E8000B8F1010FC8DA0DF11100391AB142B8BF3B
:100E90000E4636B230000DF111072FD4884206DA23
:100EA00004A9014449780829A8BF0F2100DA0021CC
:100EB00004AA024400E0761E12F80139401E8B425B
:100EC000F9D00F2904D104A901444A78521C4A7070
:100ED000002802D504AF761C2D1D36B2701E0DD42D
:100EE00039180A783032D2B23A2A03DB9DF838300A
:100EF0003A3B9A18401E01F80129F2D5206B0028D0
:100F000040F1EC80701E2063E8E0DDE90201002280
:100F1000002300F025FC3CBF81F00041CDE9020137
:100F20002DB247F2975068434B49DFF8309190FB60
:100F3000F1F52DB2C5F1070ABAF1010F90461CDB9D
:100F4000DDE902675FEACA7007D542464B46304684
:100F5000394600F0D6FC06460F4640464946424612
:100F60004B464FEA6A0A00F0CCFCBAF1000F80460B
:100F70008946E7D1CDE9026724E0CAF1000A0026DC
:100F8000374F14E05FEACA7007D542464B463046F9
:100F9000394600F0B6FC06460F46404649464246F2
:100FA0004B4600F0AEFC4FEA6A0A80468946BAF129
:100FB000000FE7D1DDE9020132463B4600F0AAFC12
:100FC000CDE90201BBF1660F216BDFF898900CBFF1
:100FD00005F10A0006204618142EA8BF132630205B
:100FE0008DF810000DF11107012E3DDBDDE9020146
:100FF00000F099FC07F1080104220A23B0FBF3F387
:1010000003EB8307A0EB4700303001F8010C0A2006
:10101000B3FBF0F000EB8007A3EB47033033521E25
:1010200001F8023DE9D1083E012E01F10807DBDBA2
:10103000DDE9020100F077FC00F07CFC02460B4683
:10104000DDE9020100F054FC00224B4600F059FC9F
:10105000CDE90201CAE700BFA086010000002440DC
:101060000000F03F84D797410DF11100381A0DF1BF
:10107000110702E0401E6D1E7F1C39783029F9D01F
:10108000BBF1660F08BF691C04D0BBF1650F0CBF34
:1010900001210021226B8E1836B2B042B8BF06463D
:1010A00036B231001AD4814204DA785C3528A8BF00
:1010B000392000DA30207A18521E00E0761E12F82D
:1010C0000139491E8342F9D0392802D1785C401C8D
:1010D0007854002902D57F1E761C6D1C2DB29DF818
:1010E0003810009533B23A46204600F003F80FB0AE
:1010F000BDE8F08F2DE9F04786B006468A46904657
:101100001D4600F03CFC012D406A376B90F80090C2
:1011100002DA01250FF278284AF02000BDF93840A4
:10112000662808BF641C12D0672878D114F1040F18
:101130007BDBBC4279DA96F83800641C000702D4E5
:10114000BD42B8BF2F4624B23F1B48BF002724B280
:10115000F068B169012C23DA4A1C30234354012F73
:1011600003DA96F83800000703D5F06800F802901B
:10117000521CE742B8BF7C4224B260427062E71959
:10118000AF42B261B8BF3D46F068B3692DB2F561B8
:101190002A464146184400F0CDF9781BB062BCE005
:1011A00022469542084416DA2A46414600F0C2F922
:1011B000B1696918601B012FB161706203DA96F89A
:1011C0003800000705D5F06800F80190F069401C70
:1011D000F061B762A1E0414600F0ACF9B0692018B7
:1011E0002D1B012F03DA96F83810090703D5F16893
:1011F00001F80090401CB0612DB2AF42B8BF3D462F
:10120000F068B3692DB22A4608EB0401184400F0D7
:1012100091F9B0692818B061781B70627DE0BAF16D
:10122000610F14D14FF0700A16E0BD4204DA96F84F
:101230003810090758BF2F467F1E48BF0027BAF154
:10124000670F14BF4FF0450A4FF0650A04E0BAF18A
:10125000410F08BF4FF0500AB169F368481CB061F4
:10126000012F18F8012B5A5403DA96F838100907A1
:1012700017D5F168431CB36101F80090012F10DB12
:101280006D1E2DB2AF42B8BF3D46F0682DB22A4662
:101290004146184400F04EF9B0692818B061781B37
:1012A0007062F068B1690144200081F800A004D4A4
:1012B0002B20487001F1020804E02D224A7001F150
:1012C00002086442002502AF08E00A22684600F0E6
:1012D0006FFB019807F8010B6D1C009C21B20129DE
:1012E000F3DA022D06DA4AF02000652804BF302028
:1012F00008F8010B4DB9302008F8010B07E06D1E0E
:1013000002A8405D303008F8010B012DF7DAF068D3
:10131000B1690844A8EB0000F06196F8380000F0CD
:10132000140010280DD17069B1690818716A081885
:10133000F1690818B16A0818716B8842BCBF081AB5
:10134000306206B0BDE8F087F8B504460D46164693
:101350001F46002077B116F8011BA868A047A860B7
:1013600030B1E86A401CE86200207F1EF3D1F2BD74
:101370004FF0FF30F2BD0000000000000000000050
:101380006E616E004E414E00696E6600494E460029
:101390003000F8B504460D4616461F4600F010FB17
:1013A0003B4632462946204601B0BDE8F04000F0F9
:1013B0001EBB00000278C9B28A421AB11CBF10F8E5
:1013C000012FF9E718BF00207047000000F101036A
:1013D000810704D010F8011B89B18107FAD1026896
:1013E000B2F10131914311F0803F04BF50F8042F56
:1013F000F6E710F8011B11B110F8011BFBE7C01A4A
:1014000070470000C9B2830706D0521E22D310F8DD
:10141000013B9942F7D11FE0083A13D302F10402CD
:1014200041EA012141EA014150F8043B121F21BF6A
:101430004B40A3F1013C2CEA030C1CF0803FF3D09D
:10144000C9B2001F083210F8013B521E28BF91EAB2
:10145000030FF8D818BF0120401E704780B500F078
:10146000AFFA012002BD000070B5054605F10F007E
:10147000C408AFF30080E400A54232D2082C04D2A5
:10148000082402E0083000F091F8224802681100B8
:101490000CD1011D0A6802B31368A34238BF111DA5
:1014A000F8D310E01D68A5420DD2191D0B68002B62
:1014B000F8D11268011D00E0191D0B6893420CD091
:1014C0001D68A542F8D361B10D682A68A2F108032E
:1014D000A3420AD26A680A600FE000F0ABFA002863
:1014E000D0D1AFF30080002070BD2B190B60121B10
:1014F0006E685E600B681A602C60096800291DBF69
:101500004A68002A091D00210160AFF3008005F13F
:10151000080070BD7842002070B504460D4616469E
:1015200000F04EFA324629462046BDE8704000F0F1
:1015300051BA000062B38B0708D0521E11F8013B6C
:1015400000F8013B00F024808B07F6D1830740F0C0
:10155000208000BF103A07D330B4B1E83810103AF9
:10156000A0E83810F9D230BC530724BFB1E8081006
:10157000A0E8081044BF51F8043B40F8043BD207F0
:1015800024BF31F8022B20F8022B44BF0B780370E4
:101590007047083A07D3B1E80810083A40F8043B0E
:1015A00040F804CBF7D25307E4E7000000B97047D6
:1015B00038B5A0F108042068082833D310F0070FCD
:1015C00030D1AFF300801848416809B18C4203D292
:1015D0006160446017E019464B680BB1A342FAD32F
:1015E0000B68CD18AC421BD3A54204D12268D21897
:1015F0000A600C4607E04A681AB1236823449A42FD
:101600000ED362604C60616851B12268A3188B42AE
:1016100006D1002303600868801820604868606075
:10162000AFF3008031BD0000784200201B4213D18F
:10163000094236D12AB18446B0FBF2F002FB10C257
:10164000704700F00DBAFCD30022002370470B0056
:101650000200002100207047904271EB030CF6D38A
:1016600070B5B1FA81F4B3FA83F52C1BA340C4F131
:10167000200532FA05F63343A2405FF00046E6400B
:1016800002E05B085FEA3202841A71EB030524BFB3
:10169000204629467641F4D302000B003000002199
:1016A00070BD012ACFD970B5140C20D0B1FA81F4E5
:1016B000B2FA82F5C4F120046419B4F12006D6D33D
:1016C000B2405FF00044F440002502E052085FEAB7
:1016D0003303C61A71EB020E24BF304671466441D3
:1016E0006D41F3D302000B002000290070BD0C46B1
:1016F000B1FBF2F102FB11452D0445EA1045B5FBA3
:10170000F2F402FB145580B240EA0545B5FBF2F055
:1017100002FB105240EA044070BD30B4436801211E
:1017200003F00042C3F31303002B436004BF0368BC
:10173000002B08D10DE00368491EDD0F5B0045EA70
:101740004404446003604468E302F4D5C4F3130323
:10175000436043681A434260084630BC704700004B
:101760004FF4001C1CEB410F94BF1CEB430F09E02E
:1017700041EA030C50EA4C0C52EA0C0C03D2994299
:1017800008BF9042704714BF8B42824270470000EE
:101790004FF4001C1CEB410F94BF1CEB430F09E0FE
:1017A00041EA030C50EA4C0C52EA0C0C03D28B4277
:1017B00008BF8242704714BF9942904270470000B0
:1017C00070B504460D46606840F2FF71C0F30A50E0
:1017D000884207D16068000304BF2068002817D042
:1017E000022070BD20B92046FFF797FF012866DA76
:1017F000012D0FDB40F2FF71091A8D420AD3606898
:1018000000284CBF9FED2F0B9FED300B84ED000B9C
:10181000012070BD4142A942616806DA6FF31E5192
:10182000401941EA0050606040E0401E451963687D
:1018300005F135000122352801F0004162F31F5304
:10184000636003D361600020206070BD002015F14B
:101850001F0F04DA206823600022203562606A428C
:1018600012D02568401E8041C2F12003C043666843
:101870009D4045EAD070256806FA03F3D5402B4316
:1018800023606368D340636062680A43B0F1004F2D
:10189000626003D80DD12078C0070AD52068401CAB
:1018A0002060206828B96068401C60604FF0FF30FD
:1018B00070BD6068884204BF20680028F6D100200F
:1018C00070BD00BF000000000000F0FF000000003D
:1018D0000000F07F41EC100BBDEEC00B10EE100AC3
:1018E000704700EE100AB8EEC00B51EC100B7047B9
:1018F00041EC100B43EC112B30EE410B51EC100B73
:10190000704741EC100B43EC112B20EE010B51EC16
:10191000100B704741EC100B43EC112B80EE010BC8
:1019200051EC100B704741EC100BBCEEC00B10EEED
:10193000100A704700EE100AB8EE400B51EC100B85
:101940007047000080B5134800F08BF80FF24C028E
:101950000FF244010160426241600FF2440282636F
:1019600081600FF24402C160016141618161816265
:10197000C16201634163C2630164416401BD10B58A
:10198000044800F06EF80446206808B9FFF7DAFF53
:10199000204610BDB4000020000000002E00000012
:1019A00066616C736500000074727565000000006C
:1019B00091FBF2F303FB1211C0E900317047000004
:1019C00080B5DFF80C0000F04CF8806902BD000023
:1019D0004401002030B430B90FF24800D0E900458E
:1019E000C2E900451BE00170012030BC704730B4F3
:1019F00031B90FF23800D0E90045C3E900450EE0E7
:101A00001AB930BC6FF00100704708B10A78028043
:101A10000978481E804130BCC043C00F7047002089
:101A200030BC704700000000000000000000000013
:101A3000000000000749086808B100207047064808
:101A4000C008C00008600549C908C900091A01603A
:101A5000704700BF90420020B7210020B041002015
:101A6000704770472DE9F14FADF5026D0A460DF54F
:101A700002610DF14A0000F0D9FC012002AC00F037
:101A8000B5FDADF80800022000F0B0FD6080032035
:101A900000F0ACFDA080042000F0A8FDE06105206E
:101AA00000254FF0FF3900F0A1FD0026C846AA46E8
:101AB000206208B907202062BDF90800002804BF91
:101AC000B4F90200002804D1B4F9040008B9662072
:101AD000A080BDF90800012804BFB4F90200002865
:101AE00009D1B4F9040030B943F21540ADF808004B
:101AF00060806620A08013A8A4F840A0A0604FF4E6
:101B0000FA60A061206AC107C0F3400148BF012606
:101B100001B1761CC0F3800000B1761C4FF4FA606E
:101B2000B6B2B0FBF6F0A061002705A8216AF94023
:101B3000C90706D5A269A1686A4311446D1C0160FA
:101B4000ADB27F1C001D032FF0DB94F82000C0070E
:101B500006D5BDF90820E168A06901F0C7F8606208
:101B600094F8200080070AD5BDF90800B4F90210E6
:101B70000CAB40EA01422169A06901F06BFC94F8CA
:101B80002000400705D5BDF908106269A06902F080
:101B9000BDF8E06900283ED10120E061E06900263F
:101BA00000EB80014800E06100F020FCE569C4F82A
:101BB00038A0C4F83CA0A5B1012102A800F06EFF36
:101BC000218F00F037FD2087414602A800F066FF14
:101BD000218F00F02FFD208706B96087761CAE426A
:101BE000EAD300F00BFC00F011FC00F015FCB7EE9E
:101BF000002BB4EE420BF1EE10FACFDBBCEEC00BC3
:101C000010EE100A00B90120E1690A22B2FBF0F0DF
:101C1000401C4843E06100F0E9FBE569C4F838A0E6
:101C2000C4F83CA00026A5B1012102A800F036FFAF
:101C3000218F00F0FFFC2087414602A800F02EFF14
:101C4000218F00F0F7FC208706B96087761CAE4232
:101C5000EAD300F0D3FB00F0D9FB0546BDF908003C
:101C60000021D04E00F018FE0146B4F9020000F049
:101C700013FE0146B4F9040000F00EFE0146A0690F
:101C800000B200F009FE41F6F2018842ADF8000012
:101C900000F0698144F6AF61884200F05A8147F64E
:101CA0000531884200F0508148F60221884206D072
:101CB0004EF6F511884200F05181CA465AE0D046EE
:101CC0000FF2E82002F092F830680027DFF8D8928F
:101CD00000284FD002A807EB071100EB810B002072
:101CE000ABF840009BF82000C0070FD5BBF83A20A6
:101CF00039F818309A4209D039460FF29C3002F078
:101D000075F8BBF84000401CABF840009BF8200081
:101D1000800711D509F10C00BBF83C2030F81830D1
:101D20009A4209D039460FF2A03002F05FF8BBF8B2
:101D30004000401CABF840009BF82000400711D544
:101D400009F11800BBF83E2030F818309A4209D04B
:101D500039460FF2A83002F049F8BBF84000401CA9
:101D6000ABF84000BBF940007F1CBFB28244306832
:101D70008742AFD300F0F8FDA1690AEB00090FF22A
:101D8000AC300FFA89F902F031F829460FF2B4307D
:101D900002F02CF8284600F03FFB53EC102B0FF21A
:101DA000BC3002F023F8284600F036FBB5EE400BBD
:101DB000F1EE10FA11DD284600F02EFB3068E169E3
:101DC000484301EE100A0FF2AC30B8EE411B81EE31
:101DD000000B53EC102B02F009F8284600F01CFB16
:101DE000B2EE042BB4EE420BF1EE10FA07D50FF26F
:101DF0009C3009F1010901F0F9FF0FFA89F9306807
:101E0000E1690FF2384A41430FF2C03001F0EEFFB2
:101E10000FF2E8310FF2CC3001F0E8FF51460FF23B
:101E2000044001F0E3FF0FF248410FF22C4001F0B3
:101E3000DDFFBDF800100FF2404001F0D7FF94F82D
:101E40002000C00713D5306800270FF2484B70B14F
:101E500002A807EB071100EB810039467F1CBFB2D7
:101E6000428F584601F0C2FF30688742F0D394F8A1
:101E70002000800713D5306800270FF2344B70B173
:101E800002A807EB071100EB810039467F1CBFB2A7
:101E9000828F584601F0AAFF30688742F0D394F849
:101EA0002000400713D5306800270FF2204B70B197
:101EB00002A807EB071100EB810039467F1CBFB277
:101EC000C28F584601F092FF30688742F0D33068E5
:101ED00000270FF2144B70B102A807EB071100EBBB
:101EE000810039467F1CBFB2028F584601F07EFF49
:101EF00030688742F0D3B9F1000F39D10FF20440B6
:101F000001F074FFB8F1030F3FD1284600F084FAC6
:101F10000FF2E820CDF804A000903068E169484352
:101F200001EE100A0FF22840B8EE411B81EE000BC3
:101F300053EC102B01F05AFF0FF234310FF22C400A
:101F400001F054FF16A01EE04FF001080FF28C00C4
:101F5000B8E64FF002080FF2B000B3E64FF0030806
:101F60000FF2D800AEE64FF004080FF20010A9E619
:101F7000B9F1010FA8BF0FF2FC3004DAB9F1000F7C
:101F800003D50FF2044001F031FF0DF14A0000F0DB
:101F90000CFB0DF5006D002009B0BDE8F08F0000CE
:101FA0000A0000002C00002000000020366B20708A
:101FB0006572666F726D616E63652072756E2070FA
:101FC0006172616D657465727320666F7220636FF4
:101FD00072656D61726B2E0A00000000366B207610
:101FE000616C69646174696F6E2072756E207061D6
:101FF00072616D657465727320666F7220636F72B3
:10200000656D61726B2E0A0050726F66696C652097
:1020100067656E65726174696F6E2072756E20708F
:102020006172616D657465727320666F7220636F93
:1020300072656D61726B2E0A00000000324B2070D9
:102040006572666F726D616E63652072756E207069
:102050006172616D657465727320666F7220636F63
:1020600072656D61726B2E0A00000000324B2076A3
:10207000616C69646174696F6E2072756E20706145
:1020800072616D657465727320666F7220636F7222
:10209000656D61726B2E0A005B25755D4552524F6E
:1020A0005221206C6973742063726320307825306C
:1020B0003478202D2073686F756C64206265203041
:1020C00078253034780A00005B25755D4552524F03
:1020D0005221206D617472697820637263203078B8
:1020E00025303478202D2073686F756C642062650C
:1020F000203078253034780A000000005B25755DBB
:102100004552524F5221207374617465206372638B
:1021100020307825303478202D2073686F756C64FA
:10212000206265203078253034780A00436F72656C
:102130004D61726B2053697A65202020203A20255A
:102140006C750A00546F74616C207469636B732042
:1021500020202020203A20256C750A00546F7461DD
:102160006C2074696D65202873656373293A202596
:10217000660A0000497465726174696F6E732F534B
:1021800065632020203A2025660A00004552524F00
:102190005221204D757374206578656375746520D0
:1021A000666F72206174206C656173742031302019
:1021B0007365637320666F7220612076616C696459
:1021C00020726573756C74210A0000004974657291
:1021D0006174696F6E73202020202020203A202512
:1021E0006C750A00436F6D70696C6572207665725C
:1021F00073696F6E203A2025730A0000494152200E
:10220000456D62656464656420576F726B62656ECC
:10221000636820494445202D2041524D20372E38F7
:10222000302E3200436F6D70696C657220666C6190
:1022300067732020203A2025730A00002D4F687311
:10224000202D6E6F5F73697A655F636F6E73747252
:1022500061696E74730000004D656D6F7279206C5A
:102260006F636174696F6E20203A2025730A000045
:10227000535441434B0000007365656463726320EF
:102280002020202020202020203A203078253034A3
:10229000780A00005B25645D6372636C6973742067
:1022A0002020202020203A203078253034780A0061
:1022B0005B25645D6372636D6174726978202020B0
:1022C00020203A203078253034780A005B25645D80
:1022D00063726373746174652020202020203A208B
:1022E0003078253034780A005B25645D637263665C
:1022F000696E616C2020202020203A203078253023
:1023000034780A00436F7272656374206F7065726F
:102310006174696F6E2076616C6964617465642EA6
:102320002053656520726561646D652E7478742034
:10233000666F722072756E20616E64207265706FB8
:102340007274696E672072756C65732E0A000000E6
:10235000436F72654D61726B20312E30203A20251B
:1023600066202F202573202573000000202F2025B4
:10237000730000004572726F727320646574656348
:102380007465640A0000000043616E6E6F7420760D
:10239000616C6964617465206F7065726174696FE6
:1023A0006E20666F7220746865736520736565645E
:1023B0002076616C7565732C20706C656173652087
:1023C000636F6D70617265207769746820726573E0
:1023D000756C7473206F6E2061206B6E6F776E204A
:1023E000706C6174666F726D2E0A000000B581B06A
:1023F00001F00EFD784901B0086000BD00B581B064
:1024000001F006FD744901B0486000BD72484168A2
:102410000068081A7047000000EE100AB8EE400B82
:102420009FED6E2B80EE020B70470000F0B5B7B049
:102430000446BFF34F8FBFF36F8F64480021C0F88D
:102440003C12016841F400310160BFF34F8FBFF3CC
:102450006F8F00210167BFF34F8FC16EC1F34E3202
:1024600043F6E073C1F3C90503EA421343EA8576F4
:102470006D1EC0F84C62CE08B60523D02E4616F06D
:10248000030706D043EA857C6D1E7F1EC0F84CC250
:10249000F8D1B60800F0168043EA85776D1EC0F8C3
:1024A0004C7243EA8577C0F84C726D1E43EA85771B
:1024B0006D1EC0F84C7243EA85776D1E761EC0F81B
:1024C0004C72E9D113465A1E002BC9D1BFF34F8F6E
:1024D000016841F480310160BFF34F8FBFF36F8F0C
:1024E00001F09CFC3A48016841F0805101600068AD
:1024F00000F08050009000983648016841F4404157
:102500000160006800F440400090009802200690AE
:102510000120099010200A9002200C9000200D90BC
:1025200008200E90D8200F900220109004201190C7
:1025300006A801F087FC00B1FEE701F007FF00B13B
:10254000FEE70F2007210190022002900020039057
:102550004FF4A05004904FF48050059001A801F072
:10256000E5FD00B1FEE7402013900020249013A861
:1025700001F026FF00B1FEE701F0BFFE194AA0FB03
:102580000221480A02F0FEF9042002F00CFA0022AF
:1025900000214FF0FF3002F0CCF902F01DFA02F0FA
:1025A0007DFD0120207037B0F0BD00210170704723
:1025B000FEE701B54FF6FF73012269460A4802F0B3
:1025C00036FE009801B000BD0000000014ED00E0F0
:1025D00040380240007000407042002000000000BF
:1025E00000408F40986E1283B0410020401E0428A6
:1025F00013D8DFE800F00306090C0F000848006854
:1026000070470848006870470748006870470748E7
:102610000068704706480068704700207047000057
:102620008042002084420020240000202800002056
:102630008842002030B481EA00030206540E4908A3
:102640004AF20102DB0748BF514081EA040349080E
:10265000DB0748BF514081EA54034908DB0748BF04
:10266000514081EA94034908DB0748BF514081EAA1
:10267000D4034908DB0748BF514081EA14134908D5
:10268000DB0748BF514081EA54134D08D90748BFC2
:10269000554085EA94136908DB0748BF514081EA39
:1026A00010234908DB0748BF514081EA50234908FD
:1026B000DB0748BF514081EA90234908DB0748BF48
:1026C000514081EAD0234908DB0748BF514081EAE5
:1026D00010334908DB0748BF514081EA50334908AD
:1026E000DB0748BF514081EA9033C40B4908D80743
:1026F00048BF514048086140C90730BC48BF5040FE
:10270000704770B481EA00040206550E49084AF287
:102710000102E40748BF514081EA05044908E40783
:1027200048BF514081EA55044908E40748BF514079
:1027300081EA95044908E40748BF514081EAD5047D
:102740004908E40748BF514081EA15144908E407E5
:1027500048BF514081EA55144E08E10748BF564032
:1027600086EA95147108E40748BF5140030481EAE2
:1027700013644908E40748BF514081EA536449089B
:10278000E40748BF514081EA93644908E40748BF21
:10279000514081EAD3644908E40748BF514081EAC7
:1027A00013744908E40748BF514081EA537449084B
:1027B000E40748BF514081EA93744D08E10748BFE0
:1027C000554085EAD3716C08C90748BF5440010CD5
:1027D00084EA010308066408DB0748BF544084EA22
:1027E00050636408DB0748BF544084EA9063640880
:1027F000DB0748BF544084EAD0636408DB0748BF66
:10280000544084EA10736408DB0748BF544084EAEC
:1028100050736408DB0748BF544084EA9073C50FC7
:102820006408D80748BF5440600884EA0503DB0702
:1028300048BF504080EA11234008DB0748BF5040A2
:1028400080EA51234008DB0748BF504080EA9123CB
:102850004008DB0748BF504080EAD1234008DB072F
:1028600048BF504080EA11334008DB0748BF504062
:1028700080EA51334008DB0748BF504080EA91337B
:102880004408D80748BF544084EAD131600870BC7E
:10289000C90748BF5040704780B281EA000330B496
:1028A0000206540E49084AF20102DB0748BF5140B4
:1028B00081EA04034908DB0748BF514081EA540319
:1028C0004908DB0748BF514081EA94034908DB0708
:1028D00048BF514081EAD4034908DB0748BF514053
:1028E00081EA14134908DB0748BF514081EA5413B9
:1028F0004D08D90748BF554085EA94136908DB079E
:1029000048BF514081EA10234908DB0748BF5140C6
:1029100081EA50234908DB0748BF514081EA9023F0
:102920004908DB0748BF514081EAD0234908DB074B
:1029300048BF514081EA10334908DB0748BF514086
:1029400081EA50334908DB0748BF514081EA9033A0
:10295000C40B4908D80748BF514048086140C9071F
:1029600030BC48BF50407047002070472DE9F0410F
:1029700082B00746B7F9004088461546200648BF92
:1029800004F07F0633D4C4F3C30040EA001114F00E
:1029900007000BD001281CD12A8F05F1280000F078
:1029A00023FB06B2A88FA8B9AE8713E02229288F8F
:1029B000B8BF222101900091B5F90230B5F900208D
:1029C0006969A86900F0B6FF06B2E88F10B9EE8712
:1029D00000E02646298FB0B206F07F06FFF72AFEF8
:1029E000288724F0FF00304340F080003880B8F999
:1029F0000070380648BF07F07F0034D4C7F3C30027
:102A000040EA001117F007000BD001281CD12A8FD3
:102A100005F1280000F0E8FA04B2A88FA8B9AC8745
:102A200013E02229288FB8BF222101900091B5F927
:102A30000230B5F900206969A86900F07BFF04B293
:102A4000E88F10B9EC8700E03C46298FA0B2FFF771
:102A5000F1FD288704F07F0027F0FF01014341F0DA
:102A60008001A8F80010301A02B0BDE8F08172B9F8
:102A7000825EB0F90030121262F307030380B1F9ED
:102A80000020B1F90030121262F307030B80B0F995
:102A90000200B1F90210401A704700002DE9F04F12
:102AA00081B0002302469B46B2F904E09C46546A7A
:102AB0008A469846BEF1010FC0F282800FFA8AFA68
:102AC000BAF1000F08F0FF09264621D4002E1EBFE0
:102AD0007068B0F9020050451CBF3668002E31D036
:102AE0007068B0F9020050451CBF3668002E29D02E
:102AF0007068B0F9020050451CBF3668002E1EBF3A
:102B00007068B0F9020050451CD03668DEE73668C0
:102B1000C6B177683F784F451CBF3668002E11D08C
:102B200077683F784F451CBF3668002E0AD077681B
:102B30003F784F451CBF3668002E1EBF77683F7830
:102B40004F45E4D12046002490B107680460044654
:102B500077B138683C603C4600281FBF07680460B6
:102B60000446002F1FBF38683C603C460028ECD16B
:102B70004EB920680CF1010C4068B0F90000C0F3B8
:102B80000020C31810E070680BF1010BB0F90000D1
:102B9000C70744BFC0F34020C318306820B107689E
:102BA0003760266806602060BAF1000F08F101085E
:102BB0000FFA88F858BF0AF1010AF045FFF67EAF18
:102BC00003EB8B000129A0EB0C0B04DBD34920465F
:102BD00000F0ACF9044620680FFA8AFA2546D0F8CE
:102BE00000804168D8F804204260C8F80410D8F882
:102BF000001001600020BAF1000FC8F8000021D4D5
:102C0000002D1EBF6868B0F9020050451CBF2D683A
:102C1000002D33D06868B0F9020050451CBF2D6804
:102C2000002D2BD06868B0F9020050451CBF2D68FC
:102C3000002D1EBF6868B0F9020050451ED02D68F7
:102C4000DEE72D68D5B169680FFA89F90978494539
:102C50001CBF2D68002D11D06968097849451CBF3B
:102C60002D68002D0AD06968097849451CBF2D6878
:102C7000002D1EBF696809784945E2D105B925686C
:102C800055B160681FFA8BF1B0F90000FFF704FE40
:102C90002D688346002DF4D12068D8F804104268CE
:102CA000C8F80420002241600168C8F800109C495F
:102CB000C0F80080204600F039F90446D4F80090AE
:102CC000B9F1000F0CD060681FFA8BF1B0F9000069
:102CD000FFF7E2FDD9F800908346B9F1000FF2D179
:102CE0001FFA8BF001B0BDE8F08F00002DE9F0472E
:102CF000DFF83082A0FB08831809831E08464FF0D6
:102D0000000801EBC309C0F80080C0F80490A9F8DE
:102D10000280DFF81482A9F8008001F10808494612
:102D200008F1080709F104058F423EBF2F1D09EB8A
:102D3000830C674512D24FF0000C4746C7F800C01D
:102D40004FF0FF3C076008F108087D607F682D1D8B
:102D5000A7F800C047F6FF7CA7F802C0002B4FF091
:102D6000000E00F0B38013F0030C09EB830947F663
:102D7000FF7722D08EEA0204E40004F078040EF01B
:102D80000706344308F108068E4244EA04243CBF97
:102D90002E1D4E450CD2D0F800A04646C6F800A025
:102DA00008F108080660756076682D1D348077800C
:102DB000BCF1010C0EF1010EDCD15FEA930C00F0C6
:102DC000858000BF8EEA0204E40004F078040EF06F
:102DD0000706344308F108068E4244EA04243CBF47
:102DE0002E1D4E450CD2D0F800A04646C6F800A0D5
:102DF00008F108080660756076682D1D34807780BC
:102E00000EF1010E8EEA0204E40004F078040EF0E4
:102E10000706344308F108068E4244EA04243CBF06
:102E20002E1D4E450CD2D0F800A04646C6F800A094
:102E300008F108080660756076682D1D348077807B
:102E40000EF1010E8EEA0204E40004F078040EF0A4
:102E50000706344308F108068E4244EA04243CBFC6
:102E60002E1D4E450CD2D0F800A04646C6F800A054
:102E700008F108080660756076682D1D348077803B
:102E80000EF1010E8EEA0204E40004F078040EF064
:102E90000706344308F108068E4244EA04243CBF86
:102EA0002E1D4E450CD2D0F800A04646C6F800A014
:102EB00008F108080660756076682D1D34807780FB
:102EC000BCF1010C0EF1010E7FF47CAFDFF85490E1
:102ED0000168A3FB09954FF00108AB080EE000BFA5
:102EE00082EA0805C8464FEA082909F4E0694968FA
:102EF00045EA0905C5F30D054D8039460F6847B110
:102F0000984508F10109EBD24968A1F80280C8464A
:102F1000F3E700220249BDE8F04707E06D29000809
:102F20006F2A0008CDCCCCCC8080FFFF2DE9F64F76
:102F300081B08246012400E064005FEA0A054FF098
:102F4000000AD346D04644D00027012C08F10108DE
:102F50002E4617DB14F0030104D036687F1C8EB1B7
:102F6000491EFAD1A0080DD036687F1C56B13668CC
:102F70007F1C3EB136687F1C26B136687F1C0EB1BF
:102F8000401EF1D1A14600E08346012F03DAB9F1DA
:102F9000010F1CDBDEB17FB1B9F1000F18BF002EAD
:102FA00006D0029A71686868019B9847012803DA85
:102FB00028462D687F1E03E030463668A9F10109D6
:102FC000BBF1000F14BFCBF800008246DCE73500F0
:102FD000BAD10020B8F1020FCBF80000ACDA5046AD
:102FE00003B0BDE8F08F00002DE9F44FD0F808A041
:102FF0004668C76804688846DFF8540440EA080950
:103000000FFA89F9002C4DD004FB04F002001CD00B
:1030100010F00303314606D0B1F800C05B1EC44473
:1030200021F802CBF8D182080FD00B88521E4344FE
:103030000B804B8843444B808B8843448B80CB88E8
:103040004344CB8001F10801EFD158B310F0030CD9
:1030500032463B4600F0098032F902EBBCF1010C2C
:103060001EFB08FE43F804EBF6D1800800F01A803E
:1030700032F902CB401E1CFB08FC43F804CB32F9AA
:1030800002CB1CFB08FC43F804CB32F902CB1CFB3F
:1030900008FC43F804CB32F902CB1CFB08FC43F8D4
:1030A00004CBE5D1002200230020002C1CBF04FB30
:1030B00004FCBCF1000F49D01CF0030E394610D0BF
:1030C0000D68AA18914502DA0A30002202E0AB42EC
:1030D000B8BF401CAEF1010E091DBEF1000F2B461A
:1030E000EED15FEA9C0C31D0D1F800E00EEB020586
:1030F000A94502DA0A30002502E07345B8BF401C3A
:103100004A685319994502DA0A30002302E09645CD
:10311000B8BF401CD1F808E00EEB0305A94502DA60
:103120000A30002502E07245B8BF401CCB685A192E
:10313000914502DA0A30002202E09E45B8BF401CE9
:10314000ACF1010C1031BCF1000FCDD1002100B267
:10315000FFF7A2FB002C01463BD000203A46234655
:103160004FF0000E4FEA0E0C0CEB00053AF91CB0C4
:1031700036F915500CF1010CA44515FB0BEE23D2CA
:103180000CEB00053AF91CB036F915500CF1010CA6
:10319000A44515FB0BEE17D20CEB00053AF91CB059
:1031A00036F915500CF1010CA44515FB0BEE0BD2B2
:1031B0000CEB00053AF91CB036F915500CF1010C76
:1031C000A44515FB0BEECFD320185B1E42F804EB91
:1031D000C6D100200022002C4FF0000C1CBF04FBC5
:1031E00004FEBEF1000F49D01EF003053B4610D08F
:1031F000D3F800B0DC44E14503DA0A324FF0000CAA
:1032000002E05845B8BF521C6D1E584603F1040336
:10321000EED15FEA9E0E31D01D68AC44E14503DA81
:103220000A324FF0000C02E0A842B8BF521C5868A6
:103230008444E14503DA0A324FF0000C02E0854293
:10324000B8BF521C9D68AC44E14503DA0A324FF026
:10325000000C02E0A842B8BF521CD8688444E14583
:1032600003DA0A324FF0000C02E08542B8BF521C6C
:10327000AEF1010E1033BEF1000FCDD110B2FFF749
:103280000BFB0546534632463946204600F084F98A
:10329000002300200022002C1CBF04FB04FCBCF116
:1032A000000F49D01CF0030E394611D0D1F800B000
:1032B0005B44994502DA0A32002302E05845B8BF60
:1032C000521CAEF1010E091DBEF1000F5846EDD1A2
:1032D0005FEA9C0C00F03080D1F800E0734499451F
:1032E00002DA0A32002302E07045B8BF521C486877
:1032F000C318994502DA0A32002302E08645B8BFB6
:10330000521CD1F808E07344994502DA0A320023CE
:1033100002E07045B8BF521CC868C318994502DA6C
:103320000A32002302E08645B8BF521CACF1010C02
:103330001031BCF1000FCFD1294610B2FFF7ACFA23
:103340000546534632463946204600F0DDF9002155
:1033500000220020002C1CBF04FB04F3002B45D0EE
:1033600013F0030A00F01280D7F800C061448945C9
:1033700002DA0A30002102E06245B8BF401CAAF11F
:10338000010A3F1DBAF1000F6246EDD19B082DD016
:10339000D7F800A05144894502DA0A30002102E042
:1033A0005245B8BF401C7A685118894502DA0A3084
:1033B000002102E09245B8BF401CD7F808A0514454
:1033C000894502DA0A30002102E05245B8BF401CAC
:1033D000FA685118894502DA0A30002102E0924564
:1033E000B8BF401C5B1E07F11007D1D1294600B2BF
:1033F000FFF752FA002CC8F100011CBF04FB04F2D5
:10340000002A1CD012F0030300F00780B6F80080F9
:103410005B1E884426F8028BF8D192080FD03388BF
:10342000CB1833807388CB187380B388CB18B380E4
:10343000F388CB18521EF38006F10806EFD1BDF8D1
:10344000001001B000B2BDE8F04FFFF725BA000050
:1034500000F0FFFF2DE9F0430125002402B901220D
:10346000B8B1641C04FB04F6F60086423FBF641C3E
:1034700004FB04F6F60086420BD2641C04FB04F63F
:10348000F60086423FBF641C04FB04F6F600864249
:10349000E7D3491E8908601E89000E1D00FB00F855
:1034A000002806EB480C18BFB8F1000F66D018F0E2
:1034B00003076446314616D06A434FEAE23902EB0D
:1034C00019494FEA2949A2EB094205EB0209A4F880
:1034D000009034F8029BA9446D1C7F1E09F0FF097F
:1034E00021F8029BE8D15FEA980E47D06A43D713D0
:1034F00002EB17473F14A2EB0747EA1924F8022B07
:10350000AA1802F0FF0221F8022B6A1C07FB02F541
:10351000EF1305EB17473F14A5EB07455719278015
:1035200034F8027BD719521C554307F0FF0721F8E6
:10353000027BEF1305EB17473F14A5EB074557191F
:10354000278034F8027BD71907F0FF0721F8027BA8
:10355000571C05FB07F2D51302EB15452D14A2EB02
:103560000542BD18258034F8025B7D1905F0FF0582
:1035700021F8025B7D1CBEF1010EB7D10CEB4801B6
:103580005E60C3F808C0491E89088900091DD9601A
:103590001860BDE8F083000000B970472DE9FE4FC8
:1035A00081B00021019B009303460024022855D3DB
:1035B000039D009E10F003074FF00008C146AE4681
:1035C00094460DD03CF902ABBEF900B07F1E1AFB49
:1035D0000B88BEF902B00EEB400E1AFB0B99F1D12D
:1035E000870831D03CF902ABBEF900B07F1E1AFB50
:1035F0000B88BEF902B00EEB400E1AFB0B9B3CF998
:1036000002ABBEF900901AFB0988BEF902900EEBDE
:10361000400E1AFB09BB3CF902ABBEF900901AFB45
:103620000988BEF902900EEB400E1AFB09BB3CF96B
:1036300002ABBEF900901AFB0988BEF902900EEBAE
:10364000400E1AFB09B9CDD1C6F80080A41CC6F8FB
:10365000049008362D1D671C8742ABD3844246D2A6
:103660000026039D10F0030C4FF0000905EB440702
:1036700015460BD035F902EBB7F90080761CBCF18A
:10368000010C07EB40071EFB0899F3D1850827D0F2
:10369000DDF808C016EB01060CEB460636F902CB46
:1036A000B7F900E007EB40076D1E1CFB0E9C36F9D6
:1036B00002EBB7F9008007EB40071EFB08CC36F998
:1036C00002EBB7F9008007EB40071EFB08CC36F988
:1036D00002EBB7F9008007EB40071EFB08C9DDD1FC
:1036E000019D6618641C844245F82690B8D3009C5E
:1036F00041185B1E02EB400204EB800400947FF44F
:1037000054AF04B0BDE8F08F00B970472DE9FE4F0B
:1037100082B00021029B0090019300230228C0F098
:103720009480049CDDF8045010F003064FF000096B
:10373000CC46A646174619D037F902ABBEF9008031
:10374000BEF902B0761E0EEB400E1AFB08F81AFB0B
:103750000BFAC8F3830BC8F3461818FB0B99CAF38E
:103760008308CAF3461A1AFB08CCE5D1860861D053
:1037700037F9028BBEF900A0BEF902B00EEB400E85
:10378000761E18FB0AFA18FB0BF8CAF3830BCAF370
:10379000461A1AFB0B99BEF902B0C8F3830AC8F3A4
:1037A000461818FB0ACC37F9028BBEF900A00EEBC5
:1037B000400E18FB0AFA18FB0BF8CAF3830BCAF386
:1037C000461A1AFB0B99BEF902B0C8F3830AC8F374
:1037D000461818FB0ACC37F9028BBEF900A00EEB95
:1037E000400E18FB0AFA18FB0BF8CAF3830BCAF356
:1037F000461A1AFB0B99BEF902B0C8F3830AC8F344
:10380000461818FB0ACC37F9028BBEF900A00EEB64
:10381000400E18FB0AFA18FB0BF8CAF3830BCAF325
:10382000461A1AFB0B99C8F3830AC8F3461818FB0B
:103830000ACC9DD1C5F800909B1CC5F804C0083582
:10384000241D5E1C8642FFF46FAF834263D20025C5
:10385000049C10F003074FF0000C04EB43061446E1
:1038600000F0118034F902EBB6F900806D1C7F1E68
:1038700006EB40061EFB08FECEF38308CEF3461E81
:103880001EFB08CCEED184083ED0039F15EB01054A
:1038900007EB450535F9027BB6F900E006EB40067B
:1038A000641E17FB0EF8C8F38307C8F3461E1EFB01
:1038B00007C735F902CBB6F900E006EB40061CFB62
:1038C0000EFCCCF3830ECCF3461C1CFB0E7735F9B3
:1038D00002CBB6F900E006EB40061CFB0EFCCCF375
:1038E000830ECCF3461C1CFB0E7735F902CBB6F9E0
:1038F00000E006EB40061CFB0EFCCCF3830ECCF381
:10390000461C1CFB0E7CC5D1029C5D185B1C8342CF
:1039100044F825C09BD3019B411802EB400203EB06
:1039200080030193009B5B1E00937FF4F6AE05B00D
:10393000BDE8F08F2DE9FC4F89B0002701AC01975D
:1039400067600B46A7600025E76000262761BB463D
:103950006761BA46A761B846E7611A78B946002A96
:1039600000F0B18093F800C00022BCF1000F00F01D
:10397000A080BCF12C0F00F09B80ACF130020A2A31
:10398000C0F08580BCF12B0F18BFBCF12D0F00F0EB
:1039900084807F1CBCF12E0F40F07C80052219E052
:1039A000ACF130020A2A0BF1010B6CD3BCF12E0FE3
:1039B0006BD105220EE000BF13F801CFBCF1000F60
:1039C00077D0BCF12C0F73D0BCF12E0F52D1052251
:1039D0000AF1010A13F801CFBCF1000F69D0BCF164
:1039E0002C0F65D0BCF1450F38D113F801CF03225D
:1039F00008F10108BCF1000F5BD0BCF12C0F57D0CF
:103A0000BCF12B0F24D113F801CF0622761CBCF198
:103A1000000F4ED0BCF12C0F4AD0ACF130020A2A74
:103A200009F1010912D3012242E000BF13F801CFCE
:103A3000BCF1000F3DD0BCF12C0F39D0ACF1300CF3
:103A4000BCF10A0FF2D301226D1C31E00722EDE731
:103A5000BCF12D0FD7D00122761C29E0BCF1650FF7
:103A6000C3D0ACF1300CBCF10A0FB3D3012208F182
:103A700001081DE0ACF1300CBCF10A0F9CD301220F
:103A80000AF1010A14E0042296E7012210E0042260
:103A90007F1C91E701226D1C0AE013F801CF02227E
:103AA0007F1CBCF1000F04D0BCF12C0F7FF478AF69
:103AB0005B1C54F822C00CF1010C44F822C01A78A7
:103AC000002A7FF44FAF0B4608440090DDF800C099
:103AD000BDF9500063450FD293F800C0BCF12C0F24
:103AE00005D0BDF824E08EEA0C0C83F800C0DDF8A8
:103AF00000C003446345EFD30B461A78B2F1000FC0
:103B000000F0B18093F800C00022BCF1000F00F07B
:103B1000A080BCF12C0F00F09B80ACF130020A2A8F
:103B2000C0F08580BCF12B0F18BFBCF12D0F00F049
:103B300084807F1CBCF12E0F40F07C80052219E0B0
:103B4000ACF130020A2A0BF1010B6CD3BCF12E0F41
:103B50006BD105220EE000BF13F801CFBCF1000FBE
:103B600077D0BCF12C0F73D0BCF12E0F52D10522AF
:103B70000AF1010A13F801CFBCF1000F69D0BCF1C2
:103B80002C0F65D0BCF1450F38D113F801CF0322BB
:103B900008F10108BCF1000F5BD0BCF12C0F57D02D
:103BA000BCF12B0F24D113F801CF0622761CBCF1F7
:103BB000000F4ED0BCF12C0F4AD0ACF130020A2AD3
:103BC00009F1010912D3012242E000BF13F801CF2D
:103BD000BCF1000F3DD0BCF12C0F39D0ACF1300C52
:103BE000BCF10A0FF2D301226D1C31E00722EDE790
:103BF000BCF12D0FD7D00122761C29E0BCF1650F56
:103C0000C3D0ACF1300CBCF10A0FB3D3012208F1E0
:103C100001081DE0ACF1300CBCF10A0F9CD301226D
:103C20000AF1010A14E0042296E7012210E00422BE
:103C30007F1C91E701226D1C0AE013F801CF0222DC
:103C40007F1CBCF1000F04D0BCF12C0F7FF478AFC7
:103C50005B1C54F822C00CF1010C44F822C01A7805
:103C6000002A7FF44FAF0246009881420AD20878BA
:103C70002C2803D0BDF82830584008700098114413
:103C80008142F4D315990198FEF73BFD0146384671
:103C9000FEF737FD01466068FEF733FD0146284612
:103CA000FEF72FFD0146A068FEF72BFD01465846A2
:103CB000FEF727FD0146E068FEF723FD014630468A
:103CC000FEF71FFD01462069FEF71BFD0146504629
:103CD000FEF717FD01466069FEF713FD01464046F9
:103CE000FEF70FFD0146A069FEF70BFD01464846B1
:103CF000FEF707FD0146E069FEF703FD01460020DF
:103D0000FEF7FFFC0BB0BDE8F08F00002DE9F04797
:103D1000002300250024401EDFF8CC9005E000BF02
:103D2000C1F3C104042559F82440EF187F1C8742D1
:103D30004ED25DB3D71815F003064FF0000CBE4607
:103D4000A04607D018F801AB761E0CF1010C0EF856
:103D500001ABF7D1AE0813D018F801AB761E0CF109
:103D6000040C0EF801AB18F801AB0EF801AB18F813
:103D700001AB0EF801AB18F801AB0EF801ABEBD1BB
:103D80004FF02C0E07F80CE06F1CFB18491C01F0DB
:103D90000707072FC9D8DFE807F005050506060D58
:103DA0000D14C2E7BCE7C1F3C10509EB8504082582
:103DB0002469BAE7C1F3C10509EB85040825246A23
:103DC000B3E7C1F3C10509EB85040825246BACE713
:103DD000401C834205D2C11AD018BDE8F04701F05B
:103DE0003BBCBDE8F0870000300000200EB400B5F9
:103DF00082B003A9009102466B4601210348784432
:103E00000A30FCF7F9F906BC5DF810FB851D0000CF
:103E100001480068704700BF8C42002000B581B0A7
:103E20000748016841F400710160032000F074FD4F
:103E3000002001F015FC01F029FC002001B000BDBC
:103E4000003C0240F0B581B004462078DFF8D85439
:103E5000C00750D5A86800F00C00042807D0A86857
:103E600000F00C0008280BD16868400208D52868CB
:103E7000800340D5606800283DD1012001B0F0BD2D
:103E80006068B0F5803F03D1286840F4803013E0CB
:103E900008B928680AE0B0F5A02F286806D140F4D8
:103EA00080202860286840F4803005E020F48030CD
:103EB0002860286820F480202860606868B1FFF7D7
:103EC000A7FF06462868800315D4FFF7A1FF801BD3
:103ED0006528F7D3032001B0F0BDFFF799FF064630
:103EE0002868800307D5FFF793FF801B6528F7D369
:103EF000032001B0F0BD2078800718D5A86810F025
:103F00000C0F07D0A86800F00C00082827D16868BB
:103F1000400224D42868800702D5E0680128ACD18B
:103F20002868216920F0F80040EAC1002860207864
:103F300000074BD560690028686F36D040F001005B
:103F40006867FFF765FF0646686F80073ED4FFF796
:103F50005FFF801B0328F7D3032001B0F0BDE068AA
:103F60000028286810D040F001002860FFF750FFBB
:103F7000064628688007D3D4FFF74AFF801B032832
:103F8000F7D3032001B0F0BD400840002860FFF7E0
:103F90003FFF064628688007C9D5FFF739FF801B19
:103FA0000328F7D3032001B0F0BD40084000686744
:103FB000FFF72EFF0646686F800707D5FFF728FF3B
:103FC000801B0328F7D3032001B0F0BD2078400701
:103FD00059D5286CDFF85C7340F080502864286C59
:103FE00000F0805000900098386840F4807038608D
:103FF000FFF70EFF06463868C00507D4FFF708FF35
:10400000801B6528F7D3032001B0F0BDA06801280C
:1040100003D1286F40F0010012E008B9286F09E0D1
:104020000528286F06D140F004002867286F40F06B
:10403000010005E0400840002867286F20F00400D8
:104040002867A06878B1FFF7E3FE064641F289379A
:10405000286F800717D4FFF7DBFE801BB842F7D329
:10406000032001B0F0BDFFF7D3FE064641F28937C9
:10407000286F800707D5FFF7CBFE801BB842F7D328
:10408000032001B0F0BDA06900284CD0A96801F060
:104090000C0108293FF4F1AE0228286820F0807056
:1040A000286032D1FFF7B4FE06462868800107D5A4
:1040B000FFF7AEFE801B0328F7D3032001B0F0BD4D
:1040C000E069216A0843616A40EA8110A16A891E99
:1040D000C903090C40EA0140E16A40EA0160216B32
:1040E00040EA01706860286840F080702860FFF73F
:1040F0008FFE06462868800115D4FFF789FE801BD5
:104100000328F7D3032001B0F0BDFFF781FE064678
:104110002868800107D5FFF77BFE801B0328F7D3B3
:10412000032001B0F0BD002001B0F0BDF0B581B0BA
:104130000546DFF8F4410E46D4F8000400F00F0005
:10414000B0420CD2D4F80004000946EA0010C4F8CA
:104150000004D4F8000400F00F00B04267D12878C2
:10416000800705D5A068A96820F0F0000843A0608A
:104170002878C00748D56868012802D121688903DA
:1041800003E00228216804D1890104D4012001B090
:10419000F0BD89074BD5A168890840EA8100A0607D
:1041A000FFF736FE0746686801280ED1A06800F0C8
:1041B0000C00042828D0FFF72BFEC01B41F28931E8
:1041C0008842F3D3032001B0F0BD02280ED1A068CD
:1041D00000F00C00082817D0FFF71AFEC01B41F2B0
:1041E00089318842F3D3032001B0F0BDA06810F0FC
:1041F0000C0F09D0FFF70CFEC01B41F28931884239
:10420000F4D3032001B0F0BDD4F8000400F00F0097
:1042100086420FD2D4F80004000946EA0010C4F820
:104220000004D4F8000400F00F00B04202D00120D6
:1042300001B0F0BD2878400705D5A068E96820F4F2
:10424000E0500843A0602878000706D5A0682969D7
:1042500020F4604040EAC100A060A06800F00C00BB
:10426000042817D0082817D160686168490200F057
:104270003F004CBF30492D49B1FBF0F06168C1F3FC
:10428000881148436168C1F30141491C4900B0FBF2
:10429000F1F002E0284800E02448A2682749C2F370
:1042A0000312895CC84022490860002001F0D8F957
:1042B000002001B0F0BD2348416801F00C01042941
:1042C00003D0082903D0194870471B48704701687C
:1042D0000268520201F03F014CBF174A134AB2FB79
:1042E000F1F102680068C2F388125143C0F3014043
:1042F000401C4000B1FBF0F070470D48006870476B
:104300000B480F4A006812680F49C2F38222895C89
:10431000C840704706480A4A006812680A49C2F352
:104320004232895CC8407047003802400024F400E3
:10433000700000200070004040787D01585A00084D
:104340000838024004380240F45B000870B582B0BF
:104350001A480168184C40F2E93641F0805101607A
:10436000006800F0805000900098206840F4803091
:104370002060FFF74DFD05466068C00307D4FFF7D6
:1043800047FD401BB042F7D3032002B070BD206848
:1043900040F400302060FFF73BFD05466068800375
:1043A00007D4FFF735FD401BB042F7D3032002B01E
:1043B00070BD002002B070BD007000404038024067
:1043C0002DE9F04381B0044620780027B946DFF894
:1043D0003C65C0070AD5B06820F40000B060B06842
:1043E000616B0843B060606B00B90127206800036F
:1043F00010D5D6F88C00E16B20F440100843C6F8C5
:104400008C00E06BB0F5801F08BF012702D008B90F
:104410004FF001092068C00210D5D6F88C00216C3D
:1044200020F440000843C6F88C00206CB0F5800FE3
:1044300008BF012702D008B94FF001092068C10167
:1044400048BF0127800661D5306CDFF8C48440F096
:1044500080503064306C00F0805000900098D8F8A4
:10446000000040F48070C8F80000FFF7D1FC05465A
:10447000D8F80000C00508D4FFF7CAFC401B652827
:10448000F6D3032001B0BDE8F083306F10F4407024
:104490001EBF216B01F4407188421FD0306F316F15
:1044A00041F480313167316F20F4407021F4803164
:1044B00031673067306FC00710D5FFF7A9FC05469C
:1044C00041F28938306F800708D4FFF7A1FC401B08
:1044D0004045F7D3032001B0BDE8F083206B00F422
:1044E0004071B1F5407F07D1B168DFF82824104052
:1044F00021F4F811084302E0B06820F4F810B0602D
:10450000306F216BC1F30B01084330672078C00680
:104510000BD5D6F88C0020F08070C6F88C00D6F849
:104520008C00A16B0843C6F88C002068400407D5B6
:10453000D6F89000616E20F440300843C6F8900031
:104540002068000407D5D6F89000A16E20F4402022
:104550000843C6F890002068C00307D5D6F890003D
:10456000E16E20F440100843C6F8900020688003F4
:1045700007D5D6F89000216F20F440000843C6F814
:1045800090002078400607D5D6F89000616C80082E
:1045900041EA8000C6F890002078000607D5D6F8DA
:1045A0009000A16C20F00C000843C6F89000206831
:1045B000C00507D5D6F89000E16C20F03000084324
:1045C000C6F890002068800507D5D6F89000216DC8
:1045D00020F0C0000843C6F890002068400507D5C9
:1045E000D6F89000616D20F440700843C6F8900042
:1045F0002068000507D5D6F89000A16D20F4406032
:104600000843C6F890002068C00407D5D6F890008B
:10461000E16D20F440500843C6F890002068800403
:1046200007D5D6F89000216E20F440400843C6F824
:1046300090002068400207D5D6F89000A16F20F0C6
:1046400080600843C6F89000206880020DD5D6F837
:104650009000E16F20F000600843C6F89000E06F22
:10466000B0F1006F08BF4FF001092068010748BF93
:104670004FF00109400307D5D6F89000616F20F094
:1046800040700843C6F890002068000208D5D6F8AC
:104690009000D4F8801020F080500843C6F89000B5
:1046A0002068400108D5D6F89000D4F8841020F096
:1046B00000500843C6F890002068000108D5D6F8DD
:1046C0008C00D4F8881020F000700843C6F88C00E5
:1046D0002068C00008D5D6F88C00D4F88C1020F0E3
:1046E00080600843C6F88C0027B92068B0F1007FCD
:1046F00040F08780306820F080603060FFF788FBF2
:1047000005463068000108D5FFF782FB401B65288D
:10471000F7D3032001B0BDE8F0832078C00712D59D
:10472000606B80B9D6F88400D6F88410626800F413
:10473000403040EA821001F070610843A16840EA0D
:104740000170C6F884002068010303D5E16BB1F560
:10475000801F05D0C0021DD5206CB0F5800F19D187
:10476000D6F88400D6F88410626800F4403040EA3D
:104770008210E26801F0E04140EA02600843C6F8B6
:104780008400D6F88C00616A4009491E41EA401055
:10479000C6F88C002068C00110D5D6F88400D6F881
:1047A0008410236962681B0443EA821200F070607F
:1047B00001F0E04110430843C6F8840020688001FE
:1047C0000CD521696068090441EA8010E16840EA7B
:1047D0000160A16840EA0170C6F88400306840F0CA
:1047E00080603060FFF714FB05463068000108D494
:1047F000FFF70EFB401B6528F7D3032001B0BDE88F
:10480000F083B9F1000F7DD0306820F08050306027
:10481000FFF7FEFA05463068800008D5FFF7F8FA82
:10482000401B6528F7D3032001B0BDE8F083206862
:10483000010301D5E16B19B1C0021CD5206CD0B9C0
:10484000D6F88800D6F88810626900F4403040EA53
:104850008210A26901F0E04140EA02600843C6F814
:104860008800D6F88C00A16A20F4F850491E40EA6E
:104870000120C6F88C002068800214D5E06FB0F1EA
:10488000006F10D1D6F88800D6F88810236A6269C4
:104890001B0443EA821200F0706001F0E041104313
:1048A0000843C6F888002078000718D5D6F8880095
:1048B000D6F88810626901F4403141EA821100F0B3
:1048C00070600843E16940EA0170C6F88800D6F8D4
:1048D0008C00E16A20F440300843C6F88C00306850
:1048E00040F080503060FFF793FA05463068800052
:1048F00008D4FFF78DFA401B6528F7D3032001B0D9
:10490000BDE8F083002001B0BDE8F083003802402C
:1049100000700040FFFCFF0F28494FF6FF030A68B4
:10492000000200F4E0601A401043254A104308607A
:10493000704730B4214B1B68C3F30223C3F1070453
:10494000052C28BF04241D1D072D34BF0023DB1EAA
:10495000012505FA04F4641E2140994005FA03F389
:104960005B1E1A4011430901002807D5154A00F0C3
:104970000F00104400F8041C30BC7047124A115458
:1049800030BC7047401EB0F1807F01D301207047DA
:104990000E494860F02081F8130D00208860072040
:1049A0000860002070470949042808680CBF40F0DF
:1049B000040020F004000860704700000CED00E0E7
:1049C0000000FA0518ED00E000E400E010E000E06F
:1049D00000F000B8704700002DE9F04F87B0DFF815
:1049E00084060168DFF8809641F0100101600168DB
:1049F00001F0100105910599016841F04001016045
:104A0000016801F0400105910599016841F002013A
:104A10000160016801F0020105910599016841F00A
:104A200008010160016801F008010591059901681C
:104A300041F004010160016801F00401059105994C
:104A4000016841F001010160016801F00101059177
:104A50000599016841F400710160016801F4007179
:104A600005910599016841F480710160016801F4C4
:104A7000807105910599016841F4806101600168C8
:104A800001F4806105910599016841F02001016000
:104A9000016801F0200105910599016841F080014C
:104AA00001600068694600F0800005900598782054
:104AB00000900220019000200290039006200490B4
:104AC000484600F015FE042069460090022001903F
:104AD000002002900320039009200490484600F033
:104AE00007FE4FF4D040694600900220019000205C
:104AF0000290032003900B200490DFF8700500F073
:104B0000F7FD4FF683700090022001900020029084
:104B1000032003900C20049048466946DFF8509526
:104B200000F0E6FD4FF440706946009012200190BD
:104B3000012002900020039004200490484600F0D9
:104B4000D7FD43F6234069460090022001900020E3
:104B50000290032003900A200490484600F0C8FD0C
:104B60001820694600900220019000200290032046
:104B700003900A200490484600F0BAFDC020DFF8F8
:104B8000F4A40090022001900020029003200390E2
:104B90000B200490694650464FF4805600F0A8FD63
:104BA0000220DFF8D4B4019000200290032003908B
:104BB0000820049069460096584600F099FD4FF48D
:104BC0000040DFF8B884009012200190002002908D
:104BD0006946039004200490404600F089FD80203F
:104BE000694600901220019001200290032003905A
:104BF0000B200490484600F07BFD40206946009061
:104C00000220019000200290032003900A200490CB
:104C1000484600F06DFD48F23710694600900220CA
:104C2000019000200290032003900C200490DFF8F4
:104C30003C0400F05DFD4FF23B000090002001902D
:104C400002906946DFF838044FF4C06400F050FD6C
:104C50004CF20370694600900220019000200290FF
:104C6000032003900C200490504600F041FD40F6D4
:104C700008006946009002200190002002900390F5
:104C800003200490584600F033FD00940220019068
:104C900000200290032003900920049069465846A2
:104CA00000F026FD02200096019000200290694647
:104CB000039005200490404600F01AFD4FF4514047
:104CC00069460090002001900290EE4800F010FD2F
:104CD00040F2FF606946009002200190002002909F
:104CE000032003900C200490E64800F001FDF8201A
:104CF00069460090002001900290E34800F0F8FC23
:104D0000022000960190002002906946039007203F
:104D10000490D64800F0ECFC0094022001900020A2
:104D20000290032003900B2004906946CF484FF473
:104D3000006400F0DDFC3020694600900020019006
:104D40000290504600F0D4FC0820694600900220F2
:104D5000019000200290039003200490504600F040
:104D6000C7FC0094022001900020029003200390D1
:104D700005200490694640464FF4807700F0B8FC67
:104D80004FF63F00694600900220019000200290FB
:104D9000032003900C200490BC4800F0A9FC0420E0
:104DA00069460090022001900020029003200390A9
:104DB00008200490504600F09BFC4FF62C7069468A
:104DC00000900220019000200290032003900C200C
:104DD0000490AF4800F08CFC009402200190002069
:104DE0000290032003900A2004906946A5484FF4DE
:104DF000005500F07DFC00970220019000200290F9
:104E0000694603900490404600F072FC0095A1486A
:104E100001900020029069469A4800F069FC0097D2
:104E20000220019000200290694603900220049025
:104E3000584600F05DFCC0206946009002200190B9
:104E4000002002900320039008200490584600F0B0
:104E50004FFC102069460090022001900020029033
:104E6000032003900A200490894800F041FC802030
:104E700069460090022001900020029003900620D5
:104E800004907A4800F034FC4820694600900020E5
:104E900001900290754800F02BFC8020694600903C
:104EA0000220019000200290039003200490774894
:104EB00000F01EFC40206946009002200190002076
:104EC0000290039003200490704800F011FC4FF40E
:104ED000E0606946009003200190002002906B483A
:104EE00000F006FC0120694600900220019000209D
:104EF0000290032003900A200490584600F0F8FB2B
:104F00003220694600900220019000200290032088
:104F100003900B200490584600F0EAFB04206946F9
:104F200000900320019000200290584600F0E0FB22
:104F30000420694600900220019000200290032086
:104F4000039009200490484600F0D2FB12200096FE
:104F500001900120029003200390042004906946F0
:104F6000504600F0C5FB0095022001900020029001
:104F700003200390092004906946504600F0B8FBD6
:104F800086206946009002200190002002900320B4
:104F900003900B200490404600F0AAFB01206946D4
:104FA00000903D48019000200290404600F0A0FB98
:104FB0005020694600900320019000200290404656
:104FC00000F096FB009402200190002002906946B8
:104FD00003900A200490504600F08AFB8020694626
:104FE0000090002001900290294800F081FB2820C9
:104FF0006946009002200190002002900320039057
:105000000A200490404600F073FB0420694600909B
:105010000220019000200290032003900D200490B4
:10502000174800F065FB402069460090022001907F
:1050300000200290039009200490154800F058FBCE
:105040004FF44040694600900220019000200290F9
:10505000039005200490484600F04AFB07B0BDE8E5
:10506000F08F00BF303802400010024000180240AC
:1050700000040240000C0240000802400000024010
:105080000024024000200240002802400014024098
:10509000001C024000001210000011102648274991
:1050A00000B501604FF4E13141600021816081B0C1
:1050B000C16001610C21416100218161C161016216
:1050C000416200F041F820B101B05DF804EBFDF75A
:1050D0006FBA01B000BD00681849884200D070471F
:1050E00010B586B016480168164C41F010010160F9
:1050F0000068694600F01000059005984FF4806044
:1051000000900220019001200290032003900720CC
:105110000490204600F0ECFA4FF4007069460090CD
:105120000220019000200290039007200490204666
:1051300000F0DEFA06B010BDB041002000100140C2
:10514000443802400000024030B5040081B014D061
:1051500094F8690020B984F868002046FFF7BBFF87
:10516000242084F86900206801684908490001602A
:10517000204600F0D3F8012802D1012001B030BD53
:10518000606A10B1204600F003FA2068416821F4FB
:10519000904141602068816821F02A018160206887
:1051A000016841F0010101600020E066FEF730FE79
:1051B00005462068006800070BD52068C06980029A
:1051C00007D4FEF725FE401B6FF07E418842F4D3E2
:1051D0000EE02068006840071FD52068C0694002C3
:1051E0001BD4FEF715FE401B6FF07E418842F4D3BE
:1051F0002068016821F4D071016020688168490845
:1052000049008160202084F8690084F86A00002049
:1052100084F86800032001B030BD202084F86900C4
:1052200084F86A00002084F8680001B030BD2DE9E0
:10523000F04104460D4694F8690090461E46202829
:1052400068D1002D14BF5FEA0800012063D094F8F4
:10525000680001285ED0012084F868000020E06624
:10526000212084F86900FEF7D3FDA4F8508007469A
:10527000A4F8528000E08162B4F8520000B3B4F8A0
:105280005200401EA4F852002068C169090609D4E2
:1052900016F1010FF8D006B3FEF7BAFDC01BB042FD
:1052A000F2D31AE0A168B1F5805F04BF216900293B
:1052B00012BF15F8011B35F8021BC1F30801DAE72C
:1052C0002068C06940061DD416F1010FF8D026B140
:1052D000FEF79EFDC01BB042F2D32068016821F4A6
:1052E000D0710160206881684908490081602020F0
:1052F00084F8690084F86A00002084F868000320BC
:10530000BDE8F081202084F86900002084F868005E
:10531000BDE8F0810220BDE8F081000070B5924E3A
:10532000054629681020002200240B683340AE682F
:1053300033432E6933436E693343EE6933430B6065
:105340004B68EE6823F4405333434B608B68AE697F
:1053500023F4306333432E6A33438B60834B99428B
:105360000BD1834B1B6803F00303032B29D8DFE821
:1053700003F06B170227022023E07E4B994211D1E4
:105380007B4B1B6803F00C030C2B1AD8DFE803F0EF
:105390008219191908191919071919191800EAE7B2
:1053A00004200EE0744B99421DD1714B1B6813F021
:1053B00030036FD0102BF3D0202BDCD0302B00D15A
:1053C0000820EB69B3F5004F40F08D80082800F20B
:1053D0007F80DFE800F00561647D6D7D7D7D760076
:1053E000FEF78EFF66E0654B99420BD1604B1B6860
:1053F00013F0C0034ED0402BD2D0802BBBD0C02B9B
:10540000DED0DEE75E4B99420DD1594B1B6813F499
:1054100040733FD0B3F5807FC2D0B3F5007FAAD0F0
:10542000B3F5407FECE7574B99420FD1504B1B68C7
:1054300013F4406308D0B3F5806FB1D0B3F5006FBB
:1054400099D0B3F5406FDBE70120BAE74E4B9942A4
:105450000ED1474B1B6813F440531BD0B3F5805F4C
:105460009ED0B3F5005F3FF486AFB3F5405FC7E76A
:10547000464B9942A5D13E4B1B6813F4404309D0DB
:10548000B3F5804F8CD0B3F5004F3FF474AFB3F554
:10549000404FB5E7002094E7FEF73CFF0AE068685C
:1054A000410801F1F47101F59041B1FBF0F210E017
:1054B000FEF701FF69684A0802EB4000B0FBF1F219
:1054C00007E06868410801F58031B1FBF0F200E0C7
:1054D00001244FF6F0701040C2F3420108432968DE
:1054E000C860204670BD08283BD8DFE800F00511F1
:1054F0001D3A243A3A3A3000FEF702FF696800EBA1
:105500005100B0FBF1F0296880B2C860204670BD40
:10551000FEF700FF696800EB5100B0FBF1F029686D
:1055200080B2C860204670BD6868420802F5740207
:1055300002F510520FE0FEF7BEFE696800EB510065
:10554000B0FBF1F0296880B2C860204670BD686881
:10555000420802F50042B2FBF0F080B2C86020467B
:1055600070BD0124204670BDF369FFEF00100140BB
:10557000903802400044004000480040004C004089
:10558000005000400014014000780040007C0040C2
:1055900090F82410C90706D501684A68836A22F486
:1055A00000321A434A6090F82410890706D5016832
:1055B0004A68C36A22F480321A434A6090F8241081
:1055C000490706D501684A68036B22F480221A4312
:1055D0004A6090F82410090706D501684A68436BB1
:1055E00022F400421A434A6090F82410C90606D5F6
:1055F00001688A68836B22F480521A438A6090F8AB
:105600002410890606D501688A68C36B22F400520B
:105610001A438A6090F82410490610D501684A6838
:10562000036C22F480121A434A60026CB2F5801FA8
:1056300005D14A68436C22F4C0021A434A6090F8CC
:105640002410090606D501684A68806C22F40022FD
:105650001043486070470000002200F04FB900007E
:1056600010B5044607480068074AA0FB0221480A13
:10567000FFF788F9002221464FF0FF30FFF759F974
:10568000002010BD70000020986E128300B581B01C
:105690000320FFF741F9002200216FF00B00FFF714
:1056A00048F9002200216FF00A00FFF742F90022BA
:1056B00000216FF00900FFF73CF9002200216FF094
:1056C0000400FFF736F9002200216FF00300FFF716
:1056D00030F9002200216FF00100FFF72AF901B034
:1056E000002200214FF0FF305DF804EBFFF721B9F5
:1056F0002DE9F04F002381B0024600249946DFF8DF
:10570000C8A1724F4FF00F0ED1F800C00120984091
:1057100000EA0C08804540F0CC80D1F804C0BCF110
:10572000020F18BFBCF1120F12D14FEAD30C09F0CF
:105730001C0502EB8C0C0EFA05FBDCF8206026EA57
:105740000B06D1F810B00BFA05F53543CCF8205014
:1057500015684FF0030C0E790CFA04FC6FEA0C0C80
:105760000CEA050506F00306A640354315604D68B2
:10577000012D18BF022D03D0112D18BF122D0FD1EE
:105780009568CE680CEA0505A640354395605568D6
:1057900025EA00004D68C5F300159D402843506080
:1057A000D0680CEA0000D1F808C00CFA04FC4CEAFE
:1057B0000000D0604868C0007BD53868DFF810C1B1
:1057C00040F480403860386800F4804000900098D1
:1057D00098085CF8205009F00C0C0EFA0CF6B54352
:1057E0003C4EB24208BF00262CD03B4EB24208BF0E
:1057F000012627D0394EB24208BF022622D0384EA9
:10580000B24208BF03261DD0364EB24208BF04265E
:1058100018D0354EB24208BF052613D0334EB242DF
:1058200008BF06260ED0324EB24208BF072609D066
:10583000304EB24208BF082604D02F4EB2420CBFF1
:1058400009260A2606FA0CFC4CEA050C204D45F800
:1058500020C0DAF800C04D686FEA080000EA0C0CBE
:10586000ED0348BF48EA0C0CCAF800C0DAF804C0DF
:105870004D6800EA0C0CAD0348BF48EA0C0CCAF8AE
:1058800004C0DAF808C04D6800EA0C0CED0248BF0D
:1058900048EA0C0CCAF808C0DAF80CC000EA0C00A0
:1058A000D1F804C05FEA8C2C48BF48EA0000CAF86F
:1058B0000C005B1CA41C102B09F10409FFF424AF9D
:1058C00001B0BDE8F08F0000003C014044380240C8
:1058D0000838014000000240000402400008024075
:1058E000000C024000100240001402400018024068
:1058F000001C02400020024000240240401810F02A
:10590000030308D0C91A1FD3DB0748BF00F8012DD5
:1059100028BF20F8022D130030B414461546103964
:1059200028BF20E93C00FAD8490728BF20E90C002D
:1059300048BF40F8042D890028BF20F8022D48BF39
:1059400000F8012D30BC7047C91818BF00F8012DB0
:10595000CB0728BF00F8012D7047000035303132E9
:105960000000000031323334000000002D3837349D
:10597000000000002B3132320000000033352E359C
:1059800034343030000000002E31323334353030C2
:10599000000000002D3131302E3730300000000083
:1059A0002B302E363434303000000000352E3530A8
:1059B00030652B33000000002D2E313233652D323F
:1059C000000000002D3837652B383332000000000E
:1059D0002B302E36652D31320000000054302E332E
:1059E000652D3146000000002D542E542B2B547190
:1059F000000000003154332E3465347A000000007A
:105A000033342E30652D545E000000000E480F4BDD
:105A1000D0F8801041F47001C0F880100C490A6879
:105A200042F001020A6000228A600A681A400A6095
:105A3000084A4A600A6822F480220A600022CA608A
:105A40004FF000610160704708ED00E0FFFFF6FED7
:105A50000038024010300024000000000000000068
:105A6000010203040607080919E050F8041BCB07DC
:105A700044BFA9F101035918121F0023042A41F859
:105A8000043BF9D25FEA827C0B4604D54FF0000C50
:105A9000A1F800C09B1CD10744BF0021197050F829
:105AA000042B002AE1D1704730B501684268846850
:105AB000014401EB5203D20748BF4C44994201D143
:105AC0000C3030BD11F9012B11F8015B002A04F8EC
:105AD000015B02D5521CF9D1F0E7521EF4D5EDE777
